:100000000C9464000C948C000C948C000C948C0068
:100010000C948C000C948C000C948C000C94410279
:100020000C948C000C948C000C948C000C948C0020
:100030000C948C000C948C000C948C000C948C0010
:100040000C94F7010C948C000C9428030C9402037C
:100050000C948C000C948C000C948C000C948C00F0
:100060000C948C000C948C000200000000240027EB
:10007000002A0000000000250028002B00000000DE
:100080000800020100000304070000000000000057
:1000900000000000002300260029000404040404DA
:1000A0000404040202020202020303030303030125
:1000B00002040810204080010204081020010204FC
:1000C00008102000390B380B11241FBECFEFD8E0E9
:1000D000DEBFCDBF11E0A0E0B1E0E2ECFFE102C085
:1000E00005900D92AE3BB107D9F722E0AEEBB1E03F
:1000F00001C01D92A13DB207E1F710E0C3E6D0E0D8
:1001000004C02197FE010E949C0EC236D107C9F798
:100110000E9407080C94D40F0C940000CF92DF9239
:10012000EF92FF920F931F93CF93DF936C017A01AD
:100130008B01C0E0D0E0CE15DF0589F0D8016D91CC
:100140008D01D601ED91FC910190F081E02DC60169
:100150000995892B11F47E0102C02196ECCFC701CD
:10016000DF91CF911F910F91FF90EF90DF90CF9093
:100170000895FC01918D828D981761F0828DDF01C9
:10018000A80FB11D5D968C91928D9F5F9F73928F8A
:1001900090E008958FEF9FEF0895FC01918D828D7F
:1001A000981731F0828DE80FF11D858D90E008954C
:1001B0008FEF9FEF0895FC01918D228D892F90E0A4
:1001C000805C9F4F821B91098F73992708958CED56
:1001D00091E00E94DB0021E0892B09F420E0822FCE
:1001E0000895FC01848DDF01A80FB11DA35ABF4FF4
:1001F0002C91848D90E001968F739927848FA68926
:10020000B7892C93A089B1898C9180648C93938D4C
:10021000848D981306C00288F389E02D80818F7D3C
:1002200080830895EF92FF920F931F93CF93DF93F4
:10023000EC0181E0888F9B8D8C8D981305C0E88937
:10024000F989808185FD24C0F62E0B8D10E00F5FAB
:100250001F4F0F731127E02E8C8DE8120CC00FB6C4
:1002600007FCFACFE889F989808185FFF5CFCE01B7
:100270000E94F100F1CF8B8DFE01E80FF11DE35AD2
:10028000FF4FF0820B8FEA89FB898081806207C073
:10029000EE89FF896083E889F989808180648083A1
:1002A00081E090E0DF91CF911F910F91FF90EF904F
:1002B0000895CF93DF93EC01888D8823C9F0EA89F4
:1002C000FB89808185FD05C0A889B9898C9186FD4F
:1002D0000FC00FB607FCF5CF808185FFF2CFA8894C
:1002E000B9898C9185FFEDCFCE010E94F100E7CF57
:1002F000DF91CF91089580E090E0892B29F00E9452
:10030000E70081110C94000008959091000198136A
:1003100024C0E8E6F0E0E4919FEF90930001E13023
:10032000B9F098F0E230C9F4909170009D7F9093FD
:10033000700091E09093B0009091B100987F94602C
:100340009093B1001092B30008C010926E0005C0E7
:1003500090916F009D7F90936F0060E00C94610519
:10036000CF93DF93EC0160E08E810E94610561E034
:100370008E810E94610560E08E810E9461058BE89C
:1003800091E00197F1F7DF91CF9108950E94CF0F8F
:100390000C94370F0C94370F0C94370F0C94370FC5
:1003A0000C94370F3FB7F8948091D4019091D50108
:1003B000A091D601B091D70126B5A89B05C02F3FCB
:1003C00019F00196A11DB11D3FBFBA2FA92F982F7B
:1003D0008827820F911DA11DB11DBC01CD0142E0F6
:1003E000660F771F881F991F4A95D1F708951F92AE
:1003F0000F920FB60F9211242F933F938F939F93D9
:10040000AF93BF938091D8019091D901A091DA0167
:10041000B091DB013091D30123E0230F2D3720F47D
:100420000196A11DB11D05C026E8230F0296A11D4E
:10043000B11D2093D3018093D8019093D901A0934B
:10044000DA01B093DB018091D4019091D501A091A4
:10045000D601B091D7010196A11DB11D8093D401A1
:100460009093D501A093D601B093D701BF91AF91DE
:100470009F918F913F912F910F900FBE0F901F90E2
:1004800018951F920F920FB60F9211242F933F933E
:100490004F935F936F937F938F939F93AF93BF938C
:1004A000EF93FF938091C7019091C801A091C9017A
:1004B000B091CA01892B8A2B8B2B51F18091BE01FF
:1004C000E091BF01F091C0019081892780838091E4
:1004D000C7019091C801A091C901B091CA01181635
:1004E00019061A061B06C4F48091C7019091C80131
:1004F000A091C901B091CA010197A109B1098093E6
:10050000C7019093C801A093C901B093CA0104C068
:10051000809100010E948501FF91EF91BF91AF9101
:100520009F918F917F916F915F914F913F912F910B
:100530000F900FBE0F901F901895DC01ED91FC916C
:100540000190F081E02D09946115710579F0FB01AE
:1005500001900020E9F73197AF01461B570BDC01F2
:10056000ED91FC910280F381E02D099480E090E010
:1005700008954F925F926F927F92EF92FF920F9346
:100580001F93CF93DF93CDB7DEB7A1970FB6F89443
:10059000DEBF0FBECDBF7C01FA01CB0119A2223014
:1005A00008F42AE08E010F5D1F4F422E512C612C62
:1005B000712CBF01A30192010E945B0EF901CA01D7
:1005C000015011096A3014F4605D01C0695CD80102
:1005D0006C93232B242B252B61F7B801C7010E94B4
:1005E000A402A1960FB6F894DEBF0FBECDBFDF9177
:1005F000CF911F910F91FF90EF907F906F905F9040
:100600004F9008951F920F920FB60F9211242F93BF
:100610003F934F935F936F937F938F939F93AF938A
:10062000BF93EF93FF938CED91E00E94F100FF9157
:10063000EF91BF91AF919F918F917F916F915F915A
:100640004F913F912F910F900FBE0F901F901895D3
:100650001F920F920FB60F9211242F938F939F9397
:10066000EF93FF93E091EC01F091ED018081E09137
:10067000F201F091F30182FD12C090818091F501A9
:100680008F5F8F732091F601821751F0E091F50191
:10069000F0E0E452FE4F958F8093F50101C0808118
:1006A000FF91EF919F918F912F910F900FBE0F901F
:1006B0001F901895CF92DF92EF92FF920F931F93A6
:1006C000CF93DF937C016C0187E0C80ED11CC0E0A2
:1006D000D0E0062F10E0B8010C2E02C0759567958A
:1006E0000A94E2F76170F60181916F010E94610541
:1006F0002196C430D10579F7C701DF91CF911F91C1
:100700000F91FF90EF90DF90CF900C94B001CF92BB
:10071000DF92EF92FF920F931F93CF93DF93EC0141
:10072000F62E642F8C810E9461058D818F3F19F018
:1007300060E00E9461058F850F2D10E084FF25C0C9
:100740006E0187E0C80ED11CE12CF12CB8010E2CF3
:1007500002C0759567950A94E2F76170F601819180
:100760006F010E946105FFEFEF1AFF0A88E0E816AB
:10077000F10461F7CE01DF91CF911F910F91FF90AE
:10078000EF90DF90CF900C94B001B80184E07595A4
:1007900067958A95E1F7CE010E945A036F2DCE012D
:1007A000DF91CF911F910F91FF90EF90DF90CF904D
:1007B0000C945A0341E00E94870381E090E0089581
:1007C00040E00C94870361E00E94E0038BE39FE12B
:1007D0000197F1F7089508950895089508950895EB
:1007E0008F929F92AF92BF92CF92DF92EF92FF9241
:1007F000CF93DF93A0918002882311F03A2F01C09C
:1008000030E08091810290E0880F991F8F569F4FB2
:10081000C0908602D0908702E0908802F090890212
:1008200040E050E0BA01FC01C591D49128812A230F
:1008300023130FC04A015B012FEF821A920AA20A0A
:10084000B20A4C155D056E057F0538F4B501A401AB
:10085000EACF342F252FCB0104C030E020E080E028
:1008600090E0632F722FDF91CF91FF90EF90DF9098
:10087000CF90BF90AF909F908F900895CF93DF93CC
:10088000BC018CED91E00E94A402EC016EEA71E0E3
:100890008CED91E00E94A4028C0F9D1FDF91CF91FF
:1008A0000895CF92DF92EF92FF92CF93DF93AB0147
:1008B000BC0177FF1DC06A017B016DE28CED91E008
:1008C0000E949D02EC0144275527BA014C195D098D
:1008D0006E097F092AE08CED91E00E94B9028C0F2D
:1008E0009D1FDF91CF91FF90EF90DF90CF90089503
:1008F0002AE08CED91E0DF91CF91FF90EF90DF90B7
:10090000CF900C94B9024F925F926F927F928F9228
:100910009F92AF92BF92CF92DF92EF92FF926B01C4
:100920007C01B42E9B01AC010E94560E882319F065
:1009300061EB71E027C026013701E89477F82FEFCB
:100940003FEF4FE75FE7C301B2010E94560E8111EE
:100950000DC02FEF3FEF4FE75FE7C301B2010E94E9
:100960008C0C18161CF465EB71E00CC02FEF3FEFF8
:100970004FE75FE4C701B6010E94E40D181694F436
:1009800069EB71E08BEA92E0FF90EF90DF90CF90FF
:10099000BF90AF909F908F907F906F905F904F909F
:1009A0000C94A4022FEF3FEF4FE75FECC701B601B5
:1009B0000E948C0C87FDE4CF20E030E0A901C70144
:1009C000B6010E948C0C87FF0BC06DE28BEA92E0AF
:1009D0000E949D024C01F7FAF094F7F8F09402C0DF
:1009E000812C912CA12C60E070E080E09FE3AB149F
:1009F00041F020E030E040E251E40E94910CA394E9
:100A0000F6CF9B01AC01C701B6010E94200C2B015F
:100A10003C010E94030D6B017C010E94320D9B0181
:100A2000AC01C301B2010E941F0C2B013C012AE062
:100A3000B701A6018BEA92E00E94B9027C01E80CA2
:100A4000F91CBB2039F06EE28BEA92E00E949D0215
:100A5000E80EF91EDB2CDD2031F120E030E040E231
:100A600051E4C301B2010E94E90D2B013C010E9437
:100A7000030D4B01A12CB12C2AE0B501A4018BEA96
:100A800092E00E94B902E80EF91EC501B4010E946D
:100A9000320D9B01AC01C301B2010E941F0C2B015E
:100AA0003C01DA94D8CFC701FF90EF90DF90CF9050
:100AB000BF90AF909F908F907F906F905F904F907E
:100AC000089590E0FC01E358FF4F3491FC01E1559B
:100AD000FF4F2491FC01E556FF4FE491EE2309F40A
:100AE0003BC0332339F1333091F038F43130A9F081
:100AF000323001F584B58F7D12C0373091F0383037
:100B0000A1F03430B9F4809180008F7D03C08091D2
:100B100080008F77809380000DC084B58F7784BD6F
:100B200009C08091B0008F7703C08091B0008F7DA5
:100B30008093B000F0E0EE0FFF1FED58FF4FA5913E
:100B4000B4918FB7F894EC91611103C020952E23D6
:100B500001C02E2B2C938FBF0895CF93DF9390E08D
:100B6000FC01E155FF4F2491FC01E556FF4F8491B4
:100B7000882361F190E0880F991FFC01E759FF4F2E
:100B8000C591D491FC01ED58FF4FA591B49161112D
:100B900009C09FB7F8948881209582238883EC91BF
:100BA0002E230BC0623061F49FB7F8943881822FF6
:100BB000809583238883EC912E2B2C939FBF06C0B6
:100BC0008FB7F894E8812E2B28838FBFDF91CF91C8
:100BD0000895EF92FF920F931F93CF93DF93EC0151
:100BE000423018F08F8588608F874B8B1C8A80E499
:100BF0008D8B6E8B70E0605C7F4F6F8B61E08C81C2
:100C00000E94AD058D818F3F19F061E00E94AD0516
:100C100061E08E810E94AD057E0187E0E80EF11C47
:100C200000E010E08F8584FD03C084E090E002C006
:100C300088E090E0081719074CF461E0F701819112
:100C40007F010E94AD050F5F1F4FECCF8BE39DE04E
:100C50000197F1F760E08C810E94610560E08E8170
:100C60000E9461058D818F3F19F060E00E9461054F
:100C70006F8564FD1DC063E0CE010E945A030BE442
:100C800016E4C8010197F1F763E0CE010E945A0310
:100C9000C8010197F1F763E0CE010E945A0383E592
:100CA00092E00197F1F762E0CE010E945A0316C06C
:100CB0006062CE010E94E0038BE496E40197F1F7B5
:100CC0006F856062CE010E94E00383E592E00197A8
:100CD000F1F76F856062CE010E94E0036F8560626C
:100CE000CE010E94E00384E0888B6CE0CE010E947C
:100CF000E003CE010E94E30382E0898B66E0CE012F
:100D0000DF91CF911F910F91FF90EF900C94E00332
:100D10008F929F92AF92BF92CF92DF92EF92FF920B
:100D20006B017C010E94D2014B015C01C114D10412
:100D3000E104F104F1F00E94D201DC01CB01881939
:100D40009909AA09BB09883E9340A105B10570F332
:100D500021E0C21AD108E108F10888EE880E83E08C
:100D6000981EA11CB11CC114D104E104F10419F7AF
:100D7000DDCFFF90EF90DF90CF90BF90AF909F902E
:100D80008F900895CF92DF92EF92FF920F931F936F
:100D9000CF93DF93CDB7DEB7C054D1400FB6F894F0
:100DA000DEBF0FBECDBF2FB7F8948091D8019091D0
:100DB000D901A091DA01B091DB012FBF40918202ED
:100DC0005091830260918402709185028C019D0193
:100DD000041B150B260B370BB901A801403D5740EA
:100DE0006105710518F480918A02BCC0809382026B
:100DF00090938302A0938402B093850210927D02A7
:100E000010927C0210927B0210927A021092790268
:100E100061E080917E020E9461056AEF70E080E0EF
:100E200090E00E94880661E080917E020E94AD05FC
:100E300060E080917E020E94610564E170E080E0E4
:100E400090E00E948806F89461E080917E020E9402
:100E500061058BE990E00197F1F762E080917E02F5
:100E60000E94AD0583E290E00197F1F780E00E94D7
:100E7000F003672B682B692B21F410928A02789477
:100E80003EC081E00E94F003672B682B692BA9F319
:100E90008E010F5F1F4F6E012FEBC21A2EEFD20A89
:100EA000780180E00E94F003F70160837183828300
:100EB000938381E00E94F003F70164837583868346
:100EC0009783F8E0EF0EF11CEC14FD0451F77894D1
:100ED00020E030E0F8014081518162817381C4805B
:100EE000D580E680F780411551056105710529F02F
:100EF000C114D104E104F10421F410928A0280E0CB
:100F000031C0F90183E0F595E7958A95E1F7E75857
:100F1000FD4F8081880F4C155D056E057F0508F437
:100F2000816080832F5F3F4F085F1F4F283231055C
:100F300089F620917D0230E04091790280917A0219
:100F400090E0840F911D40917B02840F911D409190
:100F50007C02840F911D99272817390771F681E0CB
:100F600080938A02C05CDE4F0FB6F894DEBF0FBEDE
:100F7000CDBFDF91CF911F910F91FF90EF90DF9048
:100F8000CF900895CF92DF92EF92FF920F931F932D
:100F9000E82FF92F05C0015011092109310961F12C
:100FA000908196239417B9F305C0015011092109C6
:100FB000310911F1908196239413F7CFC12CD12CD4
:100FC000E12CF12C0AC08FEFC81AD80AE80AF80AF7
:100FD0000C151D052E053F0579F0808186238417A9
:100FE00091F36C2D7D2D8E2D9F2D1F910F91FF90D4
:100FF000EF90DF90CF90089560E070E080E090E0A7
:101000001F910F91FF90EF90DF90CF90089578940B
:1010100084B5826084BD84B5816084BD85B58260FD
:1010200085BD85B5816085BD80916E0081608093AE
:101030006E00109281008091810082608093810017
:101040008091810081608093810080918000816027
:10105000809380008091B10084608093B100809182
:10106000B00081608093B00080917A0084608093AA
:101070007A0080917A00826080937A0080917A0071
:10108000816080937A0080917A00806880937A00F2
:101090001092C100E091EC01F091ED0182E08083BB
:1010A000E091E801F091E9011082E091EA01F0910C
:1010B000EB018FEC80831092F401E091F001F0914C
:1010C000F10186E08083E091EE01F091EF018081F3
:1010D00080618083E091EE01F091EF018081886072
:1010E0008083E091EE01F091EF0180818068808340
:1010F000E091EE01F091EF0180818F7D8083D9EF47
:1011000044244A94542C3201F8E62F2EF0E03F2E6E
:1011100061E0809197020E94AD0561E080919302A9
:101120000E94AD050E94C206882399F180917F023A
:101130008B3039F170F18551823058F56091790228
:1011400070E080E090E00E94320D20E030E040E866
:1011500053E40E94E90D6B017C0160917A0270E01A
:1011600080E090E00E94340D9B01AC01C701B60104
:101170000E94200C2DEC3CEC4CEC5DE30E94E90D50
:101180000CC06091790270E080E090E00E94320D26
:1011900004C060E070E080EC9FE76093A30270936E
:1011A000A4028093A5029093A6020E94C2068823FF
:1011B000C9F180917F028B3029F0A0F185518230F6
:1011C00048F030C060917B0270E080E090E00E94C7
:1011D000320D2CC0C0917B026C2F6F7770E080E0E5
:1011E00090E00E94340D20E030E040E853E40E949B
:1011F000E90D6B017C0160917C0270E080E090E081
:101200000E94340D9B01AC01C701B6010E94200C65
:101210002DEC3CEC4CEC5DE30E94E90DC7FF06C0F1
:10122000905804C060E070E080EC9FE76093A702F4
:101230007093A8028093A9029093AA0267E471E0D8
:101240008BEA92E00E94A402E091BE02E23010F428
:10125000E15001C0E1E0F0E0E555FD4F64896068D0
:101260008BEA92E00E94E0036EE471E08BEA92E088
:101270000E94A40268EE73E080E090E00E9488067D
:101280006091A3027091A4028091A5029091A602A0
:101290009B01AC010E94560E8111E3C16091A7022F
:1012A0007091A8028091A9029091AA029B01AC01C1
:1012B0000E94560E8111D5C18BEA92E00E94E30391
:1012C000E1E08091BE028111E0E0E195F0E0E555BA
:1012D000FD4F648960688BEA92E00E94E0036AE84F
:1012E00071E08BEA92E00E94A4026091A3027091E7
:1012F000A4028091A5029091A60242E00E9483047C
:10130000E091BE02E23008F0AAC1E150F0E0E555FC
:10131000FD4F648960688BEA92E00E94E00369E512
:1013200071E08BEA92E00E94A4026091A7027091A2
:10133000A8028091A9029091AA0242E00E9483042F
:1013400065E671E08BEA92E00E94A40261E0809180
:101350009B020E94AD0560E080919B020E946105A6
:1013600083E090E00197F1F761E080919B020E9499
:1013700061058FE090E00197F1F760E080919B02BA
:101380000E94610560E080919B020E94AD05809102
:101390009B0290919C029927FC01E155FF4F6491BB
:1013A000FC01E556FF4FE491F0E0EE0FFF1FEF5612
:1013B000FF4F8591949100E412E42FE030E0462F36
:1013C0000E94C207611571058105910551F0DC018C
:1013D000CB010196A11DB11D6C017D012FE0F22210
:1013E00003C0C12CD12C7601C0929D02D0929E02E6
:1013F000E0929F02F092A002C701B6012AE330E01A
:1014000040E050E00E947D0E49015A018BE691E0D8
:101410000E943E04C701B60124E930E040E050E0FC
:101420000E947D0ECA01B9010E94510480E891E03A
:101430000E943E04C501B4010E94510486E891E077
:101440000E943E0484E188169104A104B1040CF0CA
:10145000E2C061E0809193020E94610580918D025B
:1014600090918E0220910001281303C0F101C491D4
:101470007FC02F3F09F0D8C080930001F101C491D3
:10148000CF3F09F4D1C0C13029F1C23009F449C0BD
:10149000C1116EC014BC15BC24B5226024BD25B595
:1014A000216025BD9C013327F901E556FF4FE491EA
:1014B000F0E0EE0FFF1FED58FF4F45915491509310
:1014C000C6014093C501F901E155FF4FE491E09356
:1014D000C40150C0109280001092810020918100C0
:1014E0002860209381002091810021602093810059
:1014F0009C013327F901E556FF4FE491F0E0EE0F30
:10150000FF1FED58FF4F459154915093C3014093F5
:10151000C201F901E155FF4FE491E093C101C1E03F
:1015200029C01092B0001092B1002091B00022604A
:101530002093B0002091B10021602093B1009C0164
:101540003327F901E556FF4FE491F0E0EE0FFF1F5E
:10155000ED58FF4F459154915093C0014093BF0106
:10156000F901E155FF4FE491E093BE01C2E002C0F2
:10157000C7FD5AC061E00E94AD05CC2351F0C230D6
:10158000D9F48091B100887F82608093B10089EFA7
:1015900032C085B5887F826085BDD7BD4092CF01BE
:1015A0005092D0016092D1017092D20180916E0070
:1015B000826080936E0038C0C130D1F48091810088
:1015C000887F8160809381008FEC97E09093890001
:1015D000809388004092CB015092CC016092CD0163
:1015E0007092CE0180916F00826080936F001CC06A
:1015F000C230D1F48FEC8093B3004092C701509277
:10160000C8016092C9017092CA0180917000826025
:101610008093700009C060E0809193020E94610590
:1016200080918D020E94850195E1891A9108A10897
:10163000B108EDE18E169104A104B10410F461E04B
:1016400001C060E0809197020E94610564E670E04D
:1016500080E090E00E9488060E947B0159CDE1E085
:1016600055CE8BEA92E00E94E30365E971E06ACE11
:1016700008958F929F92AF92BF92EF92FF920F9335
:101680001F93CF93DF93ECEDF1E01382128288EE8B
:1016900093E0A0E0B0E084839583A683B7838BE0DA
:1016A00091E09183808385EC90E09587848784EC3A
:1016B00090E09787868780EC90E0918B808B81EC1F
:1016C00090E0938B828B82EC90E0958B848B86EC00
:1016D00090E0978B868B118E128E138E148EEBEA10
:1016E000F2E0138212828BE191E0918380838CE09F
:1016F00084838FEF85838BE0868382E0878383E01A
:10170000808784E0818785E082871386148615862A
:101710001686178641E060E1CF010E94E90501EAE3
:1017200012E083E4E82E81E0F82EF801F182E082F5
:10173000C9E7D2E062E08D810E94AD0590E3892E79
:1017400098EF992EAA24AA94BA2C89869A86AB86F9
:10175000BC86F801128213821482158216821782C7
:101760001086118686E08D8386E18E83E5EBF0E0BE
:10177000E491EF83E1EAF0E0E491E88780E89EE31A
:10178000A0E0B0E08D879E87AF87B88BE9E9F2E0F3
:101790008BE391E0918380831482158216821782F5
:1017A00087E090E093838283E5E9F2E083E391E0D0
:1017B0009183808328E030E033832283E1E9F2E003
:1017C0009183808389E090E0938382838BE291E030
:1017D0009093900280938F0242E060E18BEA92E066
:1017E0000E94E90503EC12E0F801F182E08262E078
:1017F0008D810E94AD0589869A86AB86BC86F801EC
:101800001282138214821582168217821086118624
:10181000EBE8F2E083E291E0918380838AE090E05C
:101820009383828361E0DF91CF911F910F91FF90AD
:10183000EF90BF90AF909F908F900C94AD05505853
:10184000BB27AA270E94370C0C94AA0D0E949C0D5E
:1018500038F00E94A30D20F039F49F3F19F426F4CC
:101860000C94990D0EF4E095E7FB0C94930DE92F81
:101870000E94BB0D58F3BA176207730784079507D8
:1018800020F079F4A6F50C94DD0D0EF4E0950B2E06
:10189000BA2FA02D0B01B90190010C01CA01A001C2
:1018A0001124FF27591B99F0593F50F4503E68F11D
:1018B0001A16F040A22F232F342F4427585FF3CF5E
:1018C000469537952795A795F0405395C9F77EF42F
:1018D0001F16BA0B620B730B840BBAF09150A1F078
:1018E000FF0FBB1F661F771F881FC2F70EC0BA0FFE
:1018F000621F731F841F48F4879577956795B79586
:10190000F7959E3F08F0B0CF9395880F08F0992780
:10191000EE0F9795879508950E946F0D08F481E06A
:1019200008950E94A50C0C94AA0D0E94A30D58F0D6
:101930000E949C0D40F029F45F3F29F00C94930D18
:1019400051110C94DE0D0C94990D0E94BB0D68F39F
:101950009923B1F3552391F3951B550BBB27AA2768
:1019600062177307840738F09F5F5F4F220F331FA2
:10197000441FAA1FA9F335D00E2E3AF0E0E832D06A
:1019800091505040E695001CCAF72BD0FE2F29D06D
:10199000660F771F881FBB1F261737074807AB073F
:1019A000B0E809F0BB0B802DBF01FF2793585F4FB4
:1019B0003AF09E3F510578F00C94930D0C94DE0D97
:1019C0005F3FE4F3983ED4F3869577956795B79596
:1019D000F7959F5FC9F7880F911D9695879597F9A1
:1019E0000895E1E0660F771F881FBB1F621773071A
:1019F0008407BA0720F0621B730B840BBA0BEE1F2F
:101A000088F7E09508950E94C30D88F09F5798F0DD
:101A1000B92F9927B751B0F0E1F0660F771F881FF3
:101A2000991F1AF0BA95C9F714C0B13091F00E940D
:101A3000DD0DB1E008950C94DD0D672F782F882718
:101A4000B85F39F0B93FCCF3869577956795B39534
:101A5000D9F73EF490958095709561957F4F8F4FA3
:101A60009F4F0895E89409C097FB3EF490958095A8
:101A7000709561957F4F8F4F9F4F9923A9F0F92F54
:101A800096E9BB279395F695879577956795B795D2
:101A9000F111F8CFFAF4BB0F11F460FF1BC06F5FB8
:101AA0007F4F8F4F9F4F16C0882311F096E911C0CA
:101AB000772321F09EE8872F762F05C0662371F0EB
:101AC00096E8862F70E060E02AF09A95660F771FFF
:101AD000881FDAF7880F9695879597F90895990FDB
:101AE0000008550FAA0BE0E8FEEF16161706E807E8
:101AF000F907C0F012161306E407F50798F0621B09
:101B0000730B840B950B39F40A2661F0232B242BDD
:101B1000252B21F408950A2609F4A140A6958FEFFC
:101B2000811D811D089597F99F6780E870E060E04E
:101B300008959FEF80EC089500240A941616170666
:101B400018060906089500240A94121613061406AE
:101B500005060895092E0394000C11F4882352F011
:101B6000BB0F40F4BF2B11F460FF04C06F5F7F4FC9
:101B70008F4F9F4F089557FD9058440F551F59F0B0
:101B80005F3F71F04795880F97FB991F61F09F3F6A
:101B900079F087950895121613061406551FF2CF93
:101BA0004695F1DF08C0161617061806991FF1CFE3
:101BB00086957105610508940895E894BB2766270A
:101BC0007727CB0197F908950E946F0D08F48FEFE6
:101BD00008950E94FC0D0C94AA0D0E949C0D38F0F3
:101BE0000E94A30D20F0952311F00C94930D0C94FA
:101BF000990D11240C94DE0D0E94BB0D70F3959F7E
:101C0000C1F3950F50E0551F629FF001729FBB27F3
:101C1000F00DB11D639FAA27F00DB11DAA1F649F8F
:101C20006627B00DA11D661F829F2227B00DA11D42
:101C3000621F739FB00DA11D621F839FA00D611DC8
:101C4000221F749F3327A00D611D231F849F600DE9
:101C5000211D822F762F6A2F11249F5750409AF012
:101C6000F1F088234AF0EE0FFF1FBB1F661F771F9E
:101C7000881F91505040A9F79E3F510580F00C9469
:101C8000930D0C94DE0D5F3FE4F3983ED4F38695FC
:101C900077956795B795F795E7959F5FC1F7FE2B09
:101CA000880F911D9695879597F908950E946F0D5D
:101CB000880B990B0895A1E21A2EAA1BBB1BFD01EC
:101CC0000DC0AA1FBB1FEE1FFF1FA217B307E4071B
:101CD000F50720F0A21BB30BE40BF50B661F771F73
:101CE000881F991F1A9469F7609570958095909553
:101CF0009B01AC01BD01CF010895052E97FB1EF499
:101D000000940E94940E57FD07D00E945B0E07FCC2
:101D100003D04EF40C94940E509540953095219537
:101D20003F4F4F4F5F4F0895909580957095619507
:101D30007F4F8F4F9F4F0895EE0FFF1F0590F49137
:101D4000E02D0994CF93DF938230910510F482E067
:101D500090E0E091CF02F091D00220E030E0C0E0CE
:101D6000D0E0309711F14081518148175907C0F0F8
:101D70004817590761F482819381209719F09B835A
:101D80008A832BC09093D0028093CF0226C0211566
:101D9000310519F04217530718F49A01BE01DF010B
:101DA000EF010280F381E02DDCCF2115310509F12F
:101DB000281B390B2430310590F412968D919C919B
:101DC00013976115710521F0FB019383828304C091
:101DD0009093D0028093CF02FD01329644C0FD0162
:101DE000E20FF31F81939193225031092D933C937D
:101DF0003AC02091CD023091CE02232B41F42091A4
:101E00000301309104013093CE022093CD02209142
:101E10000101309102012115310541F42DB73EB782
:101E20004091050150910601241B350BE091CD0234
:101E3000F091CE02E217F307A0F42E1B3F0B2817F8
:101E4000390778F0AC014E5F5F4F2417350748F033
:101E50004E0F5F1F5093CE024093CD02819391931A
:101E600002C0E0E0F0E0CF01DF91CF9108950F9341
:101E70001F93CF93DF93009709F48CC0FC01329736
:101E8000138212820091CF021091D0020115110528
:101E900081F420813181820F931F2091CD023091F6
:101EA000CE022817390779F5F093CE02E093CD02E0
:101EB00071C0D80140E050E0AE17BF0750F4129651
:101EC0002D913C911397AD012115310509F1D901EF
:101ED000F3CF9D01DA013383228360817181860F04
:101EE000971F8217930769F4EC0128813981260F27
:101EF000371F2E5F3F4F318320838A819B819383DD
:101F00008283452B29F4F093D002E093CF0242C0A4
:101F10001396FC93EE931297ED01499159919E010E
:101F2000240F351FE217F30771F480819181840F2C
:101F3000951F029611969C938E938281938113969E
:101F40009C938E931297E0E0F0E0D80112968D9169
:101F50009C911397009719F0F8018C01F6CF8D91A1
:101F60009C9198012E5F3F4F820F931F2091CD02CD
:101F70003091CE022817390769F4309729F410926E
:101F8000D0021092CF0202C0138212821093CE02AE
:101F90000093CD02DF91CF911F910F91089581E0C1
:101FA00090E0F8940C94D40F10E0C3E6D0E004C0A5
:101FB000FE010E949C0E2196C436D107C9F7F89401
:021FC000FFCF51
:101FC200FF0000D10280000000000012018E00DB41
:101FD20000B900CD00590100000000DA038E0000B4
:101FE200000000EF03D00100000000ED03CE01006D
:101FF200000000EC03CC0100000000EB03CA01006A
:10200200000000EE03C801496E646F6F72005465F0
:102012006D706572617475720054656D7065726180
:102022007475723A0020C2B04320004469652045AD
:102032006E746665726E756E67206973743A2000FD
:1020420020696E63680020636D0048756D6964697C
:1020520074793A20004661696C656420746F20725D
:102062006561642066726F6D2044485421000D0A38
:0E207200006E616E00696E66006F766600009B
:00000001FF
